:020000020000FC
:020000002BC013
:0200060097C39E
:06000C0046C38BC390C344
:10001600B6C3000C1925313C47515A626A70757A8D
:100026007D7E7E7E7D7A75706A625A51473C3125A7
:10003600190C00F4E7DBCFC4B9AFA69E96908B8669
:100046008382818283868B90969EA6AFB9C4CFDBCE
:10005600E7F422244FE54DBF44E04EBF0DD447E6FA
:1000660050E050BD49B948E94AB94EE840BD5FE3A2
:1000760057BB40E041BB48E742BB40B34877469593
:10008600469546954093690044E6642E342E742EB8
:10009600442EB22C43E0332700C0FED3FF24417028
:1000A600F42A41E0440FF42AE2E5F3E005D450E0F7
:1000B60053BF3ABC50E05FBD59E05EBD50E159BF49
:1000C6007894F0FE06C04BE045BD43BC49B7406896
:1000D60049BFF0FCFECF45E6E9D355B0FACFDCD3F5
:1000E600FF244170F42A42E0440FF42AE6E6F3E0E6
:1000F600E3D350E053BF58EC5ABD50E05FBD59E022
:100106005EBD50E159BF7894F0FE09C044E6742EF6
:100116004BE045BD44E643BD49B7406849BFF0FCE6
:10012600FECF45E6C3D355B0D4CFB6D3FF24417036
:10013600F42A43E0440FF42AEFE6F3E0BDD350E09F
:1001460053BF58EC5ABD50E05FBD59E05EBD50E16B
:1001560059BF7894F0FE09C044E6742E4BE045BDC5
:1001660044E643BD49B7406849BFF0FCFECF45E6CB
:100176009DD355B0FACF90D3FF2444E0440FF42A20
:10018600E2E5F3E099D350E053BF58EC5ABD50E096
:100196005FBD59E05EBD50E159BF7894472D542E9E
:1001A600FDCF00000000000000000000000000007D
:1001B6000000000000000000000000000000000039
:1001C6000205090E141B232C36404C57636F7C889E
:1001D60095A1ADB8C3CDD7DFE7EEF3F8FBFDFEFE84
:1001E600FEFE00000000000000000000000000000D
:1001F60000000000000000000205090E141B232C5D
:1002060036404C57636F7C8895A1ADB8C3CDD7DF18
:10021600E7EEF3F8FBFDFEFEFEFEFEFEFEFEFEFE34
:10022600FEFE0000000000000000000000000000CC
:100236000205090E141B232C36404C57636F7C882D
:1002460095A1ADB8C3CDD7DFE7EEF3F8FBFDFEFE13
:10025600FEFEFEFEFEFEFEFEFEFEFEFEFEFEFEFEB8
:10026600FEFE0000000000000205090E141B232CF0
:1002760036404C57636F7C8895A1ADB8C3CDD7DFA8
:10028600E7EEF3F8FBFDFEFEFEFEFEFEFEFEFEFEC4
:10029600FEFEFEFEFEFEFEFEFEFEFEFEFEFEFEFE78
:1002A600FEFE00000000000000000000000000004C
:1002B6000000000000000000000000000000000236
:1002C600091423364C637C95ADC3D7E7F3FBFEFEDA
:1002D600FEFEFEFEFEFEFEFEFEFEFEFEFEFEFEFE38
:1002E600FEFE00000000000000000000000000000C
:1002F6000000000000000002091423364C637C95C0
:10030600ADC3D7E7F3FBFEFEFEFEFEFEFEFEFEFEDF
:10031600FEFEFEFEFEFEFEFEFEFEFEFEFEFEFEFEF7
:10032600FEFE0000000000000000000000000002C9
:10033600091423364C637C95ADC3D7E7F3FBFEFE69
:10034600FEFEFEFEFEFEFEFEFEFEFEFEFEFEFEFEC7
:10035600FEFEFEFEFEFEFEFEFEFEFEFEFEFEFEFEB7
:10036600FEFE000000000002091423364C637C9553
:10037600ADC3D7E7F3FBFEFEFEFEFEFEFEFEFEFE6F
:10038600FEFEFEFEFEFEFEFEFEFEFEFEFEFEFEFE87
:10039600FEFEFEFEFEFEFEFEFEFEFEFEFEFEFEFE77
:1003A600FEFE00000000000000000000000000004B
:1003B600000000000000000000000001050B0F1403
:1003C600181D1F2C3B4C515D6F8295A7B8C8D7E30B
:1003D600EEF5FBFEFEFEFEFEFEFEFEFEFEFEFEFE53
:1003E600FEFE00000000000000000000000000000B
:1003F6000000000000000001050B141F2C3B4C5DA3
:100406006F8295A7B8C8D7E3EEF5FBFEFEFEFEFEAB
:10041600FEFEFEFEFEFEFEFEFEFEFEFEFEFEFEFEF6
:10042600FEFE0000000000000000000000000001C9
:10043600050B141F2C3B4C5D6F8295A7B8C8D7E3FC
:10044600EEF5FBFEFEFEFEFEFEFEFEFEFEFEFEFEE2
:10045600FEFEFEFEFEFEFEFEFEFEFEFEFEFEFEFEB6
:10046600FEFE000000000001050B141F2C3B4C5D36
:100476006F8295A7B8C8D7E3EEF5FBFEFEFEFEFE3B
:10048600FEFEFEFEFEFEFEFEFEFEFEFEFEFEFEFE86
:10049600FEFEFEFEFEFEFEFEFEFEFEFEFEFEFEFE76
:1004A600FEFE00000000000000000000000000004A
:1004B6000000000000000000000000000000000531
:1004C600142C4C6F95B8D7EEFBFEFEFEFEFEFEFE2C
:1004D600FEFEFEFEFEFEFEFEFEFEFEFEFEFEFEFE36
:1004E600FEFE00000000000000000000000000000A
:1004F6000000000000000005142C4C6F95B8D7EEE4
:10050600FBFEFEFEFEFEFEFEFEFEFEFEFEFEFEFE08
:10051600FEFEFEFEFEFEFEFEFEFEFEFEFEFEFEFEF5
:10052600FEFE0000000000000000000000000005C4
:10053600142C4C6F95B8D7EEFBFEFEFEFEFEFEFEBB
:10054600FEFEFEFEFEFEFEFEFEFEFEFEFEFEFEFEC5
:10055600FEFEFEFEFEFEFEFEFEFEFEFEFEFEFEFEB5
:10056600FEFE000000000005142C4C6F95B8D7EE77
:10057600FBFEFEFEFEFEFEFEFEFEFEFEFEFEFEFE98
:10058600FEFEFEFEFEFEFEFEFEFEFEFEFEFEFEFE85
:10059600FEFEFEFEFEFEFEFEFEFEFEFEFEFEFEFE75
:1005A600FEFE7AD1FF244170F42AF894EF93FF936C
:1005B600CF93DF935091690040E44502F1E0E8EA09
:1005C600E00DF11DC0E0D2E040E4559159934A9503
:1005D6004211FBCFDF91CF91E0E0F2E0E0936A00B9
:1005E600F0936B00F0FC07C0F0916B00E62DE695EA
:1005F600E69540810AC0E0916A00F0916B00419156
:10060600EF73E0936A00F0936B00FF91EF9178949B
:100616004695469548BBF894EF93FF93E3CF3CD1BC
:1006260050E8952E3ABC50E05FBD59E05EBD50E102
:1006360059BF413021F4EBE7F3E03ED103C0EFE7C9
:10064600F3E03AD17894FECF27D143E0A42EFF24DD
:100656004170F42A47E0440FF42AECE5F3E02CD18C
:1006660050E053BF3ABC50E05FBD59E05EBD50E17B
:1006760059BF7894F0FE06C04BE045BD43BC49B770
:10068600406849BFF0FCFECF45E610D145B14F5753
:10069600542EF8CFE0916400F091650009943ABCBD
:1006A600CF730991152D0103112D062D9803012DE8
:1006B6002AC03ABCCF730991152D0102112D062DC2
:1006C6009803012D20C0152D00E21803032D010DFE
:1006D6000ABDCF73099117C03ABCC09168001C2FA0
:1006E600C50DCF73088113951F73109368000BC057
:1006F6003ABC0991CF7307C03ABC83940FE78914BB
:1007060008F0002700C010E8010F0B0D08F001C02B
:100716000FEF0695069508BB2CBC5F9930C018955F
:100726003ABC052D0695069508BB189528BA189566
:1007360043BCAF730D91172D202F222352F4209521
:10074600219F212D2F3318F48903012D0BC000E8BA
:1007560009C0019F212D2F3318F48903012D02C0F2
:100766000FE700C023E0A21611F020E8020F502E7A
:10077600189518EC130F5D9BFCCF1CB908955F9B71
:10078600FECF0CB1303041F4063909F066C0009353
:100796006000339501E063C0AF93BF93A0E6B0E07D
:1007A600A30F0C93BF91AF91339524E0321357C03A
:1007B60030E0009161001091620026E90F93022754
:1007C60001272091630002170F9109F044C00631FA
:1007D60071F00731C9F10E3141F10F3149F10032A3
:1007E60051F1013259F1023261F102E038C03BD0D9
:1007F60000E00BBF40E841231F7747FD41E05D9BCA
:10080600FECF0CB9113009F448CC123009F467CC8C
:10081600133009F48ACC143009F4ADCC153009F440
:10082600C0CE173009F410CF38CC012F612E17C077
:10083600012F312E14C0412E012F11C0012F712E10
:100846000EC0012FB12E0BC00ED01F77412F5D9B1E
:10085600FECF0CB9E4CE03E002C000E000C05D9B11
:10086600FECF0CB91895A22C23BE2FBC2EBC25BCDE
:1008760027B826B829BE089540E0C0E0D1E0E8E1F7
:10088600F0E040E4559159934A954211FBCFD1E0EF
:10089600C0E0B1E0A0E00895F8940F901F900FE536
:1008A6000DBF04E00EBF1F920F92089547B944ECA6
:1008B60046B93699FECF0895E0936400F09365003B
:0208C600089593
:00000001FF
