:020000020000FC
:020000002BC013
:0200060083C1B4
:06000C004CC177C17CC16C
:100016008BC1000C1925313C47515A626A70757ABA
:100026007D7E7E7E7D7A75706A625A51473C3125A7
:10003600190C00F4E7DBCFC4B9AFA69E96908B8669
:100046008382818283868B90969EA6AFB9C4CFDBCE
:10005600E7F422244FE54DBF44E04EBFCED147E63C
:1000660050E050BD49B948E94AB94EE840BD5FE3A2
:1000760057BB40E041BB40E642BB40B34695469580
:1000860046954695469540936900342E742E442E27
:100096004FEF642E4427332700C0BFD1FF244170A1
:1000A600F42A41E0440FF42AE8E5F1E0C6D150E035
:1000B60053BF3ABC50E05FBD59E05EBD50E159BF49
:1000C6007894F0FE06C04BE045BD43BC49B7406896
:1000D60049BFF0FCFECF45E6AAD155B0FACF9DD177
:1000E600FF244170F42A42E0440FF42AE2E6F1E0EC
:1000F600A4D150E053BF58EC5ABD50E05FBD59E063
:100106005EBD50E159BF7894F0FE09C044E6742EF6
:100116004BE045BD44E643BD49B7406849BFF0FCE6
:10012600FECF45E684D155B0D4CF77D1FF244170B8
:10013600F42A43E0440FF42AEBE6F1E07ED150E0E6
:1001460053BF58EC5ABD50E05FBD59E05EBD50E16B
:1001560059BF7894F0FE09C044E6742E4BE045BDC5
:1001660044E643BD49B7406849BFF0FCFECF45E6CB
:100176005ED155B0FACF51D1FF2444E0440FF42AA2
:10018600E8E5F1E05AD150E053BF58EC5ABD50E0D3
:100196005FBD59E05EBD50E159BF7894472D542E9E
:1001A600FDCF00000000000000000000000000007D
:1001B6000000000000000000000000000000000039
:1001C6000205090E141B232C36404C57636F7C889E
:1001D60095A1ADB8C3CDD7DFE7EEF3F8FBFDFEFE84
:1001E600FEFE0000000000000205090E141B232C71
:1001F60036404C57636F7C8895A1ADB8C3CDD7DF29
:10020600E7EEF3F8FBFDFEFEFEFEFEFEFEFEFEFE44
:10021600FEFEFEFEFEFEFEFEFEFEFEFEFEFEFEFEF8
:10022600FEFEFBD0FF244170F42AF894EF93FF936F
:10023600CF93DF9340E050916900503019F4E8EA1B
:10024600F1E003C05130E8EEF1E0C0E0D2E040E476
:10025600559159934A954211FBCFDF91CF91E0E03A
:10026600F2E0E0936A00F0936B00F0FC05C0462DC7
:1002760046954695E42F0AC0E0916A00F0916B001E
:100286004191EF73E0936A00F0936B00FF91EF9159
:1002960078944695469548BBF894EF93FF93E5CF3F
:1002A600E0916400F091650009943ABCCF7309911E
:1002B600152D0103112D062D9803012D14C0152DA2
:1002C60000E21803032D010D0ABDCF7309910BC07F
:1002D6003ABCC09168001C2FC50DCF7308811395D9
:1002E6001F731093680010E8010F0695069508BB6A
:1002F6002CBC5F9919C018953ABC052D0695069534
:1003060008BB189528BA189543BCAF730D91172DE5
:10031600890320E8012D020F502E189518EC130FB3
:100326005D9BFCCF1CB908955F9BFECF0CB13030AE
:1003360041F4063909F052C000936000339501E09C
:100346004FC0AF93BF93A0E6B0E0A30F0C93BF914D
:10035600AF91339524E0321343C030E00091610041
:100366001091620026E90F9302270127209163006E
:1003760002170F9189F5063151F00E3119F10F313F
:1003860019F1003219F1013221F102E029C02CD015
:1003960000E00BBF40E841231F7747FD41E05D9B2E
:1003A600FECF0CB9113009F478CE123009F497CE8D
:1003B600133009F4BACE143009F4DDCE153009F441
:1003C60030CF6BCE612E0CC0312E0AC0412E012FCC
:1003D60007C0012F712E04C003E002C000E000C078
:1003E6005D9BFECF0CB9189540E043BF4FBD4EBD97
:1003F60045BD47B946B949BF089540E0C0E0D1E0E0
:10040600E8E1F0E040E4559159934A954211FBCF5B
:10041600D1E0C0E0B1E0A0E00895F8940F901F90FD
:100426000FE50DBF04E00EBF1F920F92089547B966
:1004360044EC46B93699FECF0895E0936400F093F4
:0404460065000895B0
:00000001FF
