:020000020000FC
:020000002BC013
:020006009DC09B
:06000C0068C091C096C01F
:10001600A3C0000C1925313C47515A626A70757AA3
:100026007D7E7E7E7D7A75706A625A51473C3125A7
:10003600190C00F4E7DBCFC4B9AFA69E96908B8669
:100046008382818283868B90969EA6AFB9C4CFDBCE
:10005600E7F422244FE54DBF44E04EBFD0D047E63B
:1000660050E050BD49B948E94AB94EE840BD5FE3A2
:1000760057BB00C0D4D0FF244170F42A41E0440F9E
:10008600F42AE4E7F0E0DBD050E053BF58EC5ABD69
:1000960050E05FBD59E05EBD50E159BF7894F0FE77
:1000A60007C04BE045BD42E343BD49B7406849BF81
:1000B600F0FCFECF45E6BDD055B0FACFB0D04FE349
:1000C60047BB51E05FBD59E05EBD5CE059BF789427
:1000D60045E6AFD055B0FCCFE0916400F0916500E5
:1000E60009943ABCCF730991152D0103112D062DE4
:1000F6009803012D14C0152D00E21803032D010DE0
:100106000ABDCF7309910BC03ABCC09168001C2F81
:10011600C50DCF73088113951F731093680010E8FF
:10012600010F0695069508BB2CBC18953ABC052D03
:100136000695069508BB189528BA189543BCAF7363
:100146000D910058172D0903512C189518EC130F13
:100156005D9BFCCF1CB908955F9BFECF0CB15D9BE8
:10016600FECF0CB9303039F4063909F03EC00093A1
:10017600600033951895AF93BF93A0E6B0E0A30F48
:100186000C93BF91AF913395343079F530E00091FF
:1001960061001091620026E90F9302270127209142
:1001A600630002170F9109F50B30C1F0063149F0D3
:1001B6000E3129F00F31A9F00032A9F016C0612ED8
:1001C60014C014D000E00BBF40E841231F77113064
:1001D60009F450CF123009F471CF70CF07D000E484
:1001E6000BBF312E02C0412E00C0189540E043BF20
:1001F6004FBD4EBD45BD47B946B949BF089540E01C
:10020600C0E0D1E0E8E1F0E040E4559159934A9529
:100216004211FBCFD1E0C0E0B1E0A0E00895F89430
:100226000F901F900FE50DBF04E00EBF1F920F92B7
:10023600089547B944EC46B93699FECF0895E09340
:080246006400F09365000895C7
:00000001FF
