:020000020000FC
:020000002BC013
:02000600F9C03F
:06000C00C2C0EDC0F2C00D
:1000160001C1000C1925313C47515A626A70757A44
:100026007D7E7E7E7D7A75706A625A51473C3125A7
:10003600190C00F4E7DBCFC4B9AFA69E96908B8669
:100046008382818283868B90969EA6AFB9C4CFDBCE
:10005600E7F422244FE54DBF44E04EBF41D147E6C9
:1000660050E050BD49B948E94AB94EE840BD5FE3A2
:1000760057BB44E6342E742E442E4FEF642E44278D
:10008600332700C03DD1FF244170F42A41E0440FDC
:10009600F42AEEECF0E044D150E053BF3ABC50E015
:1000A6005FBD59E05EBD50E159BF7894F0FE06C0D1
:1000B6004BE045BD43BC49B7406849BFF0FCFECFA5
:1000C60045E628D155B0FACF1BD1FF244170F42A5A
:1000D60042E0440FF42AE8EDF0E022D150E053BFAD
:1000E60058EC5ABD50E05FBD59E05EBD50E159BFC6
:1000F6007894F0FE09C044E6742E4BE045BD44E614
:1001060043BD49B7406849BFF0FCFECF45E602D182
:1001160055B0D4CFF5D0FF244170F42A43E0440F04
:10012600F42AE1EEF0E0FCD050E053BF58EC5ABDA3
:1001360050E05FBD59E05EBD50E159BF7894F0FED6
:1001460009C044E6742E4BE045BD44E643BD49B7BD
:10015600406849BFF0FCFECF45E6DCD055B0FACF8B
:10016600CFD0FF2444E0440FF42AEEECF0E0D8D0E0
:1001760050E053BF58EC5ABD50E05FBD59E05EBD3C
:1001860050E159BF7894472D542EFDCFE09164007D
:10019600F091650009943ABCCF730991152D0103BE
:1001A600112D062D9803012D14C0152D00E21803FC
:1001B600032D010D0ABDCF7309910BC03ABCC09146
:1001C60068001C2FC50DCF73088113951F731093FC
:1001D600680010E8010F0695069508BB2CBC5F99D0
:1001E60019C018953ABC052D0695069508BB1895B5
:1001F60028BA189543BCAF730D91172D890320E8D3
:10020600012D020F502E189518EC130F5D9BFCCF95
:100216001CB908955F9BFECF0CB1303041F406390E
:1002260009F04FC000936000339501E04CC0AF93D6
:10023600BF93A0E6B0E0A30F0C93BF91AF913395A7
:1002460024E0321340C030E000916100109162005A
:1002560026E90F93022701272091630002170F91C9
:1002660071F5063161F00E3141F00F3101F10032C6
:1002760001F1013209F102E026C0612E24C027D027
:1002860000E00BBF40E841231F7747FD41E05D9B3F
:10029600FECF0CB9113009F4F5CE123009F414CFA3
:1002A600133009F437CF143009F45ACFEBCE312E80
:1002B6000AC0412E012F07C0012F712E04C003E092
:1002C60002C000E000C05D9BFECF0CB9189540E06F
:1002D60043BF4FBD4EBD45BD47B946B949BF089559
:1002E60040E0C0E0D1E0E8E1F0E040E45591599308
:1002F6004A954211FBCFD1E0C0E0B1E0A0E00895FD
:10030600F8940F901F900FE50DBF04E00EBF1F92EB
:100316000F92089547B944EC46B93699FECF089531
:0A032600E0936400F0936500089571
:00000001FF
