:020000020000FC
:020000002BC013
:0200060081C1B6
:06000C004AC175C17AC172
:1000160089C1000C1925313C47515A626A70757ABC
:100026007D7E7E7E7D7A75706A625A51473C3125A7
:10003600190C00F4E7DBCFC4B9AFA69E96908B8669
:100046008382818283868B90969EA6AFB9C4CFDBCE
:10005600E7F422244FE54DBF44E04EBFCCD147E63E
:1000660050E050BD49B948E94AB94EE840BD5FE3A2
:1000760057BB40E041BB40E642BB40B34695469580
:1000860046954695469540936900342E742E442E27
:100096004FEF642E4427332700C0BDD1FF244170A3
:1000A600F42A41E0440FF42AE6E5F1E0C4D150E039
:1000B60053BF3ABC50E05FBD59E05EBD50E159BF49
:1000C6007894F0FE06C04BE045BD43BC49B7406896
:1000D60049BFF0FCFECF45E6A8D155B0FACF9BD17B
:1000E600FF244170F42A42E0440FF42AE0E6F1E0EE
:1000F600A2D150E053BF58EC5ABD50E05FBD59E065
:100106005EBD50E159BF7894F0FE09C044E6742EF6
:100116004BE045BD44E643BD49B7406849BFF0FCE6
:10012600FECF45E682D155B0D4CF75D1FF244170BC
:10013600F42A43E0440FF42AE9E6F1E07CD150E0EA
:1001460053BF58EC5ABD50E05FBD59E05EBD50E16B
:1001560059BF7894F0FE09C044E6742E4BE045BDC5
:1001660044E643BD49B7406849BFF0FCFECF45E6CB
:100176005CD155B0FACF4FD1FF2444E0440FF42AA6
:10018600E6E5F1E058D150E053BF58EC5ABD50E0D7
:100196005FBD59E05EBD50E159BF7894472D542E9E
:1001A600FDCF00000000000000000000000000007D
:1001B6000000000000000000000000000000000039
:1001C6000205090E141B232C36404C57636F7C889E
:1001D60095A1ADB8C3CDD7DFE7EEF3F8FBFDFEFE84
:1001E600FEFE0000000000000205090E141B232C71
:1001F60036404C57636F7C8895A1ADB8C3CDD7DF29
:10020600E7EEF3F8FBFDFEFEFEFEFEFEFEFEFEFE44
:10021600FEFEFEFEFEFEFEFEFEFEFEFEFEFEFEFEF8
:10022600FEFEF9D0FF244170F42AF894EF93FF9371
:10023600CF93DF9340E050916900503019F4E8EA1B
:10024600F1E003C05130E8EEF1E0C0E0D2E040E476
:10025600559159934A954211FBCFDF91CF91E0E03A
:10026600F2E0E0936A00F0936B00F0FE03C0E62D27
:1002760040810AC0E0916A00F0916B004191EF73F2
:10028600E0936A00F0936B00FF91EF9178944695A6
:10029600469548BBF894EF93FF93E7CFE09164004F
:1002A600F091650009943ABCCF730991152D0103AD
:1002B600112D062D9803012D14C0152D00E21803EB
:1002C600032D010D0ABDCF7309910BC03ABCC09135
:1002D60068001C2FC50DCF73088113951F731093EB
:1002E600680010E8010F0695069508BB2CBC5F99BF
:1002F60019C018953ABC052D0695069508BB1895A4
:1003060028BA189543BCAF730D91172D890320E8C1
:10031600012D020F502E189518EC130F5D9BFCCF84
:100326001CB908955F9BFECF0CB1303041F40639FD
:1003360009F052C000936000339501E04FC0AF93BF
:10034600BF93A0E6B0E0A30F0C93BF91AF91339596
:1003560024E0321343C030E0009161001091620046
:1003660026E90F93022701272091630002170F91B8
:1003760089F5063151F00E3119F10F3119F10032BC
:1003860019F1013221F102E029C02CD000E00BBFA7
:1003960040E841231F7747FD41E05D9BFECF0CB946
:1003A600113009F47ACE123009F499CE133009F4DB
:1003B600BCCE143009F4DFCE153009F432CF6DCE41
:1003C600612E0CC0312E0AC0412E012F07C0012F0D
:1003D600712E04C003E002C000E000C05D9BFECFAA
:1003E6000CB9189540E043BF4FBD4EBD45BD47B95A
:1003F60046B949BF089540E0C0E0D1E0E8E1F0E049
:1004060040E4559159934A954211FBCFD1E0C0E0A3
:10041600B1E0A0E00895F8940F901F900FE50DBF8E
:1004260004E00EBF1F920F92089547B944EC46B9F7
:100436003699FECF0895E0936400F0936500089521
:00000001FF
