:020000020000FC
:020000002BC013
:020006009DC09B
:06000C0068C091C096C01F
:10001600A3C0000C1925313C47515A626A70757AA3
:100026007D7E7E7E7D7A75706A625A51473C3125A7
:10003600190C00F4E7DBCFC4B9AFA69E96908B8669
:100046008382818283868B90969EA6AFB9C4CFDBCE
:10005600E7F422244FE54DBF44E04EBFD5D047E636
:1000660050E050BD49B948E94AB94EE840BD5FE3A2
:1000760057BB00C0D9D0FF244170F42A41E0440F99
:10008600F42AE4E7F0E0E0D050E053BF58EC5ABD64
:1000960050E05FBD59E05EBD50E159BF7894F0FE77
:1000A60007C04BE045BD42E343BD49B7406849BF81
:1000B600F0FCFECF45E6C2D055B0FACFB5D04FE33F
:1000C60047BB51E05FBD59E05EBD5CE059BF789427
:1000D60045E6B4D055B0FCCFE0916400F0916500E0
:1000E60009943ABCCF730991152D0103112D062DE4
:1000F6009803012D14C0152D00E21803032D010DE0
:100106000ABDCF7309910BC03ABCC09168001C2F81
:10011600C50DCF73088113951F731093680010E8FF
:10012600010F0695069508BB2CBC18953ABC052D03
:100136000695069508BB189528BA189543BCAF7363
:100146000D910058172D0903512C189518EC130F13
:100156005D9BFCCF1CB908955F9BFECF0CB1303080
:1001660041F4063909F041C000936000339501E07F
:100176003EC0AF93BF93A0E6B0E0A30F0C93BF9130
:10018600AF913395343099F530E0009161001091CC
:10019600620026E90F9302270127209163000217C8
:1001A6000F9109F50B30C1F0063149F00E3129F0F7
:1001B6000F31A9F00032A9F01AC0612E18C01BD069
:1001C60000E00BBF40E841231F77113009F452CFFE
:1001D600123009F473CF72CF0ED000E40BBF312E6C
:1001E60006C0412E04C003E002C000E000C05D9BD3
:1001F600FCCF0CB9189540E043BF4FBD4EBD45BD81
:1002060047B946B949BF089540E0C0E0D1E0E8E10A
:10021600F0E040E4559159934A954211FBCFD1E065
:10022600C0E0B1E0A0E00895F8940F901F900FE5AC
:100236000DBF04E00EBF1F920F92089547B944EC1C
:1002460046B93699FECF0895E0936400F0936500B1
:02025600089509
:00000001FF
