:1000000012C021C020C01FC01EC01DC01CC01BC00C
:100010001AC019C018C017C016C015C014C013C02C
:1000200012C011C010C011241FBECFE5D4E0DEBF46
:10003000CDBF20E0A0E6B0E001C01D92A836B20717
:10004000E1F751D025C1DCCF9091650089278C77ED
:10005000803169F034F4843081F0883061F482E0DA
:100060000895803231F0803431F487E0089583E0E0
:10007000089585E0089580E0089581E008958095D1
:100080008F7791B39095982391BB92B389238095F4
:1000900082BB08955D9BFECF8CB908950F931F938B
:1000A000CF93DF93082FC62F86E990E0F3DF002E71
:1000B000000C110BC801EEDF0C2E000CDD0BCE0185
:1000C000E9DFCE0126E9822780279127DF91CF91B2
:1000D0001F910F91DFCF806687B987EC86B936997B
:1000E000FECF85B1089511BA8FEF82BB10BC8DE4AD
:1000F00089B988E18AB98EE880BD80B38C7F80930E
:10010000650080E88093630080B3909165008C7FE8
:100110009817B9F18FE59AEE0197F1F700C000004A
:10012000D0B3DC7FC0B3809165008D1751F1C078EA
:100130008D2F8ADF182F81110AC0809163008C17E0
:10014000D1F0609162006C2B86E1A8DF14C0809131
:100150006200082E000C990B212F30E082179307C4
:1001600041F0612F6C2B86E199DF809162008D2B2D
:1001700086DF10936200C093630080B38C7F80930E
:10018000650084E0A8DFC82FC6958C2F90E02091F1
:10019000640030E0265F3F4F2817390744F0209174
:1001A000640030E02A503109821793072CF46C2F39
:1001B0008EE174DFC093640083E08DDFC82F90E090
:1001C0002091600030E0265F3F4F2817390744F048
:1001D0002091600030E02A503109821793072CF4F7
:1001E0006C2F8FE15BDFC093600082E074DFC82F6B
:1001F000C6958C2F90E02091610030E0265F3F4F44
:100200002817390744F02091610030E02A50310965
:10021000821793072CF46C2F81E240DFC0936100BA
:1002200081E059DFC82FC6958C2F90E020916600A1
:1002300030E0265F3F4F2817390744F020916600D1
:1002400030E02A503109821793072CF46C2F80E29A
:1002500025DFC093660080E03EDFC82FC6958C2F57
:1002600090E02091670030E0265F3F4F2817390764
:100270004CF02091670030E02A5031098217930733
:100280000CF042CF6C2F82E209DFC09367003CCFB5
:04029000F894FFCF10
:00000001FF
