S0160000616D436F6E74726F6C426F6172642E7372656377
S113000012C021C020C01FC01EC01DC01CC01BC008
S11300101AC019C018C017C016C015C014C013C028
S113002012C011C010C011241FBECFE5D4E0DEBF42
S1130030CDBF20E0A0E6B0E001C01D92A736B20714
S1130040E1F748D0FEC0DCCF9091650089278C731E
S1130050883089F018F4843031F00BC0803129F0F5
S1130060803229F006C081E0089583E0089585E098
S1130070089580E0089582E0089580958F7791B384
S11300809095982391BB92B38923809582BB089560
S11300905D9BFECF8CB90895CF93DF93C82FD62FE5
S11300A086E990E0F5DF8C2F90E0F2DF8D2F90E071
S11300B0EFDF86E9D8278D2F8C2790E0E9DFDF91E9
S11300C0CF910895806687B987EC86B93699FECFBB
S11300D085B1089511BA8FEF82BB10BC87E689B948
S11300E088E18AB98EE880BD80B38C7F80936500F7
S11300F080E88093630080B3909165008C7F9817AB
S1130100B1F12FEF89EF90E0215080409040E1F76A
S113011000C00000C0B3CC7F10B3809165008C1781
S113012031F110788C2F90DFD82F81110CC0809181
S11301306300811729F060916200612B86E1ACDFD6
S11301401093630010C0809162008D1741F06D2FF1
S1130150612B86E1A1DF809162008C2B8EDFD0932E
S113016062001093630080B38C7F8093650084E009
S1130170A9DFC82F282F30E04091640050E0465F8B
S11301805F4F4217530744F04091640050E04A50D7
S11301905109241735072CF46C2F8EE17DDFC093B1
S11301A0640083E08FDFC82F282F30E04091600087
S11301B050E0465F5F4F4217530744F040916000A0
S11301C050E04A505109241735072CF46C2F8FE165
S11301D063DFC093600082E075DFC82F282F30E012
S11301E04091610050E0465F5F4F4217530744F06F
S11301F04091610050E04A505109241735072CF40E
S11302006C2F81E249DFC093610081E05BDFC82F7E
S1130210282F30E04091660050E0465F5F4F421760
S113022053074CF04091660050E04A50510924179E
S113023035070CF060CF6C2F80E22EDFC093660090
S10902405ACFF894FFCF31
S9030000FC
